{
  "_format": "hh-sol-artifact-1",
  "contractName": "CrowdFunding",
  "sourceName": "contracts/Crowdfunding.sol",
  "abi": [
    {
      "anonymous": false,
      "inputs": [
        {
          "indexed": false,
          "internalType": "uint256",
          "name": "campaignId",
          "type": "uint256"
        },
        {
          "indexed": true,
          "internalType": "address",
          "name": "owner",
          "type": "address"
        },
        {
          "indexed": false,
          "internalType": "uint256",
          "name": "target",
          "type": "uint256"
        },
        {
          "indexed": false,
          "internalType": "uint256",
          "name": "deadline",
          "type": "uint256"
        }
      ],
      "name": "CampaignCreated",
      "type": "event"
    },
    {
      "anonymous": false,
      "inputs": [
        {
          "indexed": false,
          "internalType": "uint256",
          "name": "campaignId",
          "type": "uint256"
        },
        {
          "indexed": true,
          "internalType": "address",
          "name": "donator",
          "type": "address"
        },
        {
          "indexed": false,
          "internalType": "uint256",
          "name": "amount",
          "type": "uint256"
        },
        {
          "indexed": false,
          "internalType": "uint256",
          "name": "timestamp",
          "type": "uint256"
        }
      ],
      "name": "DonationReceived",
      "type": "event"
    },
    {
      "anonymous": false,
      "inputs": [
        {
          "indexed": false,
          "internalType": "uint256",
          "name": "campaignId",
          "type": "uint256"
        },
        {
          "indexed": true,
          "internalType": "address",
          "name": "donator",
          "type": "address"
        },
        {
          "indexed": false,
          "internalType": "uint256",
          "name": "amount",
          "type": "uint256"
        }
      ],
      "name": "Refunded",
      "type": "event"
    },
    {
      "anonymous": false,
      "inputs": [
        {
          "indexed": false,
          "internalType": "uint256",
          "name": "campaignId",
          "type": "uint256"
        },
        {
          "indexed": true,
          "internalType": "address",
          "name": "owner",
          "type": "address"
        },
        {
          "indexed": false,
          "internalType": "uint256",
          "name": "amount",
          "type": "uint256"
        }
      ],
      "name": "Withdrawn",
      "type": "event"
    },
    {
      "inputs": [
        {
          "internalType": "uint256",
          "name": "",
          "type": "uint256"
        }
      ],
      "name": "campaigns",
      "outputs": [
        {
          "internalType": "address",
          "name": "owner",
          "type": "address"
        },
        {
          "internalType": "string",
          "name": "title",
          "type": "string"
        },
        {
          "internalType": "string",
          "name": "description",
          "type": "string"
        },
        {
          "internalType": "uint256",
          "name": "target",
          "type": "uint256"
        },
        {
          "internalType": "uint256",
          "name": "deadline",
          "type": "uint256"
        },
        {
          "internalType": "uint256",
          "name": "amountCollected",
          "type": "uint256"
        }
      ],
      "stateMutability": "view",
      "type": "function"
    },
    {
      "inputs": [
        {
          "internalType": "uint256",
          "name": "_id",
          "type": "uint256"
        }
      ],
      "name": "checkRefunds",
      "outputs": [],
      "stateMutability": "nonpayable",
      "type": "function"
    },
    {
      "inputs": [
        {
          "internalType": "string",
          "name": "_title",
          "type": "string"
        },
        {
          "internalType": "string",
          "name": "_description",
          "type": "string"
        },
        {
          "internalType": "uint256",
          "name": "_target",
          "type": "uint256"
        },
        {
          "internalType": "uint256",
          "name": "_deadline",
          "type": "uint256"
        }
      ],
      "name": "createCampaign",
      "outputs": [
        {
          "internalType": "uint256",
          "name": "",
          "type": "uint256"
        }
      ],
      "stateMutability": "nonpayable",
      "type": "function"
    },
    {
      "inputs": [
        {
          "internalType": "uint256",
          "name": "_id",
          "type": "uint256"
        }
      ],
      "name": "donateToCampaign",
      "outputs": [],
      "stateMutability": "payable",
      "type": "function"
    },
    {
      "inputs": [],
      "name": "getCampaigns",
      "outputs": [
        {
          "components": [
            {
              "internalType": "address",
              "name": "owner",
              "type": "address"
            },
            {
              "internalType": "string",
              "name": "title",
              "type": "string"
            },
            {
              "internalType": "string",
              "name": "description",
              "type": "string"
            },
            {
              "internalType": "uint256",
              "name": "target",
              "type": "uint256"
            },
            {
              "internalType": "uint256",
              "name": "deadline",
              "type": "uint256"
            },
            {
              "internalType": "uint256",
              "name": "amountCollected",
              "type": "uint256"
            },
            {
              "internalType": "address[]",
              "name": "donators",
              "type": "address[]"
            },
            {
              "internalType": "uint256[]",
              "name": "donations",
              "type": "uint256[]"
            },
            {
              "internalType": "uint256[]",
              "name": "donationTimestamps",
              "type": "uint256[]"
            }
          ],
          "internalType": "struct CrowdFunding.Campaign[]",
          "name": "",
          "type": "tuple[]"
        }
      ],
      "stateMutability": "view",
      "type": "function"
    },
    {
      "inputs": [
        {
          "internalType": "uint256",
          "name": "_id",
          "type": "uint256"
        }
      ],
      "name": "getDonators",
      "outputs": [
        {
          "internalType": "address[]",
          "name": "",
          "type": "address[]"
        },
        {
          "internalType": "uint256[]",
          "name": "",
          "type": "uint256[]"
        },
        {
          "internalType": "uint256[]",
          "name": "",
          "type": "uint256[]"
        }
      ],
      "stateMutability": "view",
      "type": "function"
    },
    {
      "inputs": [],
      "name": "numberOfCampaigns",
      "outputs": [
        {
          "internalType": "uint256",
          "name": "",
          "type": "uint256"
        }
      ],
      "stateMutability": "view",
      "type": "function"
    },
    {
      "inputs": [
        {
          "internalType": "uint256",
          "name": "_id",
          "type": "uint256"
        }
      ],
      "name": "withdraw",
      "outputs": [],
      "stateMutability": "nonpayable",
      "type": "function"
    }
  ],
  "bytecode": "0x6080604052600060015534801561001557600080fd5b50612248806100256000396000f3fe60806040526004361061007b5760003560e01c806342a4fda81161004e57806342a4fda814610155578063a318f26914610171578063a6b03633146101ae578063a7a25026146101d95761007b565b806307ca140d146100805780630fa91fa9146100ab578063141961bc146100ea5780632e1a7d4d1461012c575b600080fd5b34801561008c57600080fd5b50610095610202565b6040516100a29190611df9565b60405180910390f35b3480156100b757600080fd5b506100d260048036038101906100cd9190611400565b610208565b6040516100e193929190611c2b565b60405180910390f35b3480156100f657600080fd5b50610111600480360381019061010c9190611400565b610385565b60405161012396959493929190611bbc565b60405180910390f35b34801561013857600080fd5b50610153600480360381019061014e9190611400565b6104f1565b005b61016f600480360381019061016a9190611400565b610788565b005b34801561017d57600080fd5b506101986004803603810190610193919061136d565b610953565b6040516101a59190611df9565b60405180910390f35b3480156101ba57600080fd5b506101c3610b07565b6040516101d09190611c77565b60405180910390f35b3480156101e557600080fd5b5061020060048036038101906101fb9190611400565b610ee9565b005b60015481565b6060806060600080858152602001908152602001600020600601600080868152602001908152602001600020600701600080878152602001908152602001600020600801828054806020026020016040519081016040528092919081815260200182805480156102cd57602002820191906000526020600020905b8160009054906101000a900473ffffffffffffffffffffffffffffffffffffffff1673ffffffffffffffffffffffffffffffffffffffff1681526020019060010190808311610283575b505050505092508180548060200260200160405190810160405280929190818152602001828054801561031f57602002820191906000526020600020905b81548152602001906001019080831161030b575b505050505091508080548060200260200160405190810160405280929190818152602001828054801561037157602002820191906000526020600020905b81548152602001906001019080831161035d575b505050505090509250925092509193909250565b60006020528060005260406000206000915090508060000160009054906101000a900473ffffffffffffffffffffffffffffffffffffffff16908060010180546103ce906120e2565b80601f01602080910402602001604051908101604052809291908181526020018280546103fa906120e2565b80156104475780601f1061041c57610100808354040283529160200191610447565b820191906000526020600020905b81548152906001019060200180831161042a57829003601f168201915b50505050509080600201805461045c906120e2565b80601f0160208091040260200160405190810160405280929190818152602001828054610488906120e2565b80156104d55780601f106104aa576101008083540402835291602001916104d5565b820191906000526020600020905b8154815290600101906020018083116104b857829003601f168201915b5050505050908060030154908060040154908060050154905086565b600080600083815260200190815260200160002090508060000160009054906101000a900473ffffffffffffffffffffffffffffffffffffffff1673ffffffffffffffffffffffffffffffffffffffff163373ffffffffffffffffffffffffffffffffffffffff1614610599576040517f08c379a000000000000000000000000000000000000000000000000000000000815260040161059090611d39565b60405180910390fd5b80600401544210156105e0576040517f08c379a00000000000000000000000000000000000000000000000000000000081526004016105d790611dd9565b60405180910390fd5b80600301548160050154101561062b576040517f08c379a000000000000000000000000000000000000000000000000000000000815260040161062290611d99565b60405180910390fd5b6000816005015490506000826005018190555060008260000160009054906101000a900473ffffffffffffffffffffffffffffffffffffffff1673ffffffffffffffffffffffffffffffffffffffff168260405161068890611ba7565b60006040518083038185875af1925050503d80600081146106c5576040519150601f19603f3d011682016040523d82523d6000602084013e6106ca565b606091505b505090508061070e576040517f08c379a000000000000000000000000000000000000000000000000000000000815260040161070590611db9565b60405180910390fd5b8260000160009054906101000a900473ffffffffffffffffffffffffffffffffffffffff1673ffffffffffffffffffffffffffffffffffffffff167fcf7d23a3cbe4e8b36ff82fd1b05b1b17373dc7804b4ebbd6e2356716ef202372858460405161077a929190611e14565b60405180910390a250505050565b60008060008381526020019081526020016000209050806004015442106107e4576040517f08c379a00000000000000000000000000000000000000000000000000000000081526004016107db90611d59565b60405180910390fd5b60003411610827576040517f08c379a000000000000000000000000000000000000000000000000000000000815260040161081e90611d79565b60405180910390fd5b80600601339080600181540180825580915050600190039060005260206000200160009091909190916101000a81548173ffffffffffffffffffffffffffffffffffffffff021916908373ffffffffffffffffffffffffffffffffffffffff1602179055508060070134908060018154018082558091505060019003906000526020600020016000909190919091505580600801429080600181540180825580915050600190039060005260206000200160009091909190915055348160050160008282546108f69190611fda565b925050819055503373ffffffffffffffffffffffffffffffffffffffff167f3dbea1b4ce5f95137fdcac9b1d685825c3d70ace830df1ca5a181d3887add41083344260405161094793929190611e3d565b60405180910390a25050565b6000808311610997576040517f08c379a000000000000000000000000000000000000000000000000000000000815260040161098e90611cb9565b60405180910390fd5b4282116109d9576040517f08c379a00000000000000000000000000000000000000000000000000000000081526004016109d090611cd9565b60405180910390fd5b600080600060015481526020019081526020016000209050338160000160006101000a81548173ffffffffffffffffffffffffffffffffffffffff021916908373ffffffffffffffffffffffffffffffffffffffff16021790555085816001019080519060200190610a4c9291906111a9565b5084816002019080519060200190610a659291906111a9565b50838160030181905550828160040181905550600081600501819055503373ffffffffffffffffffffffffffffffffffffffff167f91b289a829e71d811b8c69e4a24ba2d40d115d8a236e9a724cb3bb2d43cf72236001548686604051610ace93929190611e3d565b60405180910390a260016000815480929190610ae990612114565b919050555060018054610afc9190612030565b915050949350505050565b6060600060015467ffffffffffffffff811115610b4d577f4e487b7100000000000000000000000000000000000000000000000000000000600052604160045260246000fd5b604051908082528060200260200182016040528015610b8657816020015b610b7361122f565b815260200190600190039081610b6b5790505b50905060005b600154811015610ee157600080828152602001908152602001600020604051806101200160405290816000820160009054906101000a900473ffffffffffffffffffffffffffffffffffffffff1673ffffffffffffffffffffffffffffffffffffffff1673ffffffffffffffffffffffffffffffffffffffff168152602001600182018054610c1a906120e2565b80601f0160208091040260200160405190810160405280929190818152602001828054610c46906120e2565b8015610c935780601f10610c6857610100808354040283529160200191610c93565b820191906000526020600020905b815481529060010190602001808311610c7657829003601f168201915b50505050508152602001600282018054610cac906120e2565b80601f0160208091040260200160405190810160405280929190818152602001828054610cd8906120e2565b8015610d255780601f10610cfa57610100808354040283529160200191610d25565b820191906000526020600020905b815481529060010190602001808311610d0857829003601f168201915b5050505050815260200160038201548152602001600482015481526020016005820154815260200160068201805480602002602001604051908101604052809291908181526020018280548015610dd157602002820191906000526020600020905b8160009054906101000a900473ffffffffffffffffffffffffffffffffffffffff1673ffffffffffffffffffffffffffffffffffffffff1681526020019060010190808311610d87575b5050505050815260200160078201805480602002602001604051908101604052809291908181526020018280548015610e2957602002820191906000526020600020905b815481526020019060010190808311610e15575b5050505050815260200160088201805480602002602001604051908101604052809291908181526020018280548015610e8157602002820191906000526020600020905b815481526020019060010190808311610e6d575b505050505081525050828281518110610ec3577f4e487b7100000000000000000000000000000000000000000000000000000000600052603260045260246000fd5b60200260200101819052508080610ed990612114565b915050610b8c565b508091505090565b600080600083815260200190815260200160002090508060040154421015610f46576040517f08c379a0000000000000000000000000000000000000000000000000000000008152600401610f3d90611d19565b60405180910390fd5b8060030154816005015410610f90576040517f08c379a0000000000000000000000000000000000000000000000000000000008152600401610f8790611c99565b60405180910390fd5b60005b816006018054905081101561116a576000826006018281548110610fe0577f4e487b7100000000000000000000000000000000000000000000000000000000600052603260045260246000fd5b9060005260206000200160009054906101000a900473ffffffffffffffffffffffffffffffffffffffff169050600083600701838154811061104b577f4e487b7100000000000000000000000000000000000000000000000000000000600052603260045260246000fd5b9060005260206000200154905060008273ffffffffffffffffffffffffffffffffffffffff168260405161107e90611ba7565b60006040518083038185875af1925050503d80600081146110bb576040519150601f19603f3d011682016040523d82523d6000602084013e6110c0565b606091505b5050905080611104576040517f08c379a00000000000000000000000000000000000000000000000000000000081526004016110fb90611cf9565b60405180910390fd5b8273ffffffffffffffffffffffffffffffffffffffff167f7ca5472b7ea78c2c0141c5a12ee6d170cf4ce8ed06be3d22c8252ddfc7a6a2c4878460405161114c929190611e14565b60405180910390a2505050808061116290612114565b915050610f93565b50600081600501819055508060060160006111859190611291565b80600701600061119591906112b2565b8060080160006111a591906112b2565b5050565b8280546111b5906120e2565b90600052602060002090601f0160209004810192826111d7576000855561121e565b82601f106111f057805160ff191683800117855561121e565b8280016001018555821561121e579182015b8281111561121d578251825591602001919060010190611202565b5b50905061122b91906112d3565b5090565b604051806101200160405280600073ffffffffffffffffffffffffffffffffffffffff16815260200160608152602001606081526020016000815260200160008152602001600081526020016060815260200160608152602001606081525090565b50805460008255906000526020600020908101906112af91906112d3565b50565b50805460008255906000526020600020908101906112d091906112d3565b50565b5b808211156112ec5760008160009055506001016112d4565b5090565b60006113036112fe84611ea5565b611e74565b90508281526020810184848401111561131b57600080fd5b6113268482856120a0565b509392505050565b600082601f83011261133f57600080fd5b813561134f8482602086016112f0565b91505092915050565b600081359050611367816121fb565b92915050565b6000806000806080858703121561138357600080fd5b600085013567ffffffffffffffff81111561139d57600080fd5b6113a98782880161132e565b945050602085013567ffffffffffffffff8111156113c657600080fd5b6113d28782880161132e565b93505060406113e387828801611358565b92505060606113f487828801611358565b91505092959194509250565b60006020828403121561141257600080fd5b600061142084828501611358565b91505092915050565b6000611435838361146d565b60208301905092915050565b600061144d8383611aa8565b905092915050565b60006114618383611b89565b60208301905092915050565b61147681612064565b82525050565b61148581612064565b82525050565b600061149682611f05565b6114a08185611f58565b93506114ab83611ed5565b8060005b838110156114dc5781516114c38882611429565b97506114ce83611f31565b9250506001810190506114af565b5085935050505092915050565b60006114f482611f05565b6114fe8185611f69565b935061150983611ed5565b8060005b8381101561153a5781516115218882611429565b975061152c83611f31565b92505060018101905061150d565b5085935050505092915050565b600061155282611f10565b61155c8185611f7a565b93508360208202850161156e85611ee5565b8060005b858110156115aa578484038952815161158b8582611441565b945061159683611f3e565b925060208a01995050600181019050611572565b50829750879550505050505092915050565b60006115c782611f1b565b6115d18185611f8b565b93506115dc83611ef5565b8060005b8381101561160d5781516115f48882611455565b97506115ff83611f4b565b9250506001810190506115e0565b5085935050505092915050565b600061162582611f1b565b61162f8185611f9c565b935061163a83611ef5565b8060005b8381101561166b5781516116528882611455565b975061165d83611f4b565b92505060018101905061163e565b5085935050505092915050565b600061168382611f26565b61168d8185611fb8565b935061169d8185602086016120af565b6116a6816121ea565b840191505092915050565b60006116bc82611f26565b6116c68185611fc9565b93506116d68185602086016120af565b6116df816121ea565b840191505092915050565b60006116f7602c83611fc9565b91507f43616d706169676e20776173207375636365737366756c2c206e6f207265667560008301527f6e647320616c6c6f7765642e00000000000000000000000000000000000000006020830152604082019050919050565b600061175d602183611fc9565b91507f546172676574206d7573742062652067726561746572207468616e207a65726f60008301527f2e000000000000000000000000000000000000000000000000000000000000006020830152604082019050919050565b60006117c3602183611fc9565b91507f446561646c696e652073686f756c6420626520696e207468652066757475726560008301527f2e000000000000000000000000000000000000000000000000000000000000006020830152604082019050919050565b6000611829600e83611fc9565b91507f526566756e64206661696c65642e0000000000000000000000000000000000006000830152602082019050919050565b6000611869601983611fc9565b91507f43616d706169676e206973207374696c6c206163746976652e000000000000006000830152602082019050919050565b60006118a9602b83611fc9565b91507f4f6e6c79207468652063616d706169676e206f776e65722063616e207769746860008301527f647261772066756e64732e0000000000000000000000000000000000000000006020830152604082019050919050565b600061190f601d83611fc9565b91507f43616d706169676e20646561646c696e6520686173207061737365642e0000006000830152602082019050919050565b600061194f602383611fc9565b91507f446f6e6174696f6e206d7573742062652067726561746572207468616e207a6560008301527f726f2e00000000000000000000000000000000000000000000000000000000006020830152604082019050919050565b60006119b5601a83611fc9565b91507f43616d706169676e206e6f742066756c6c792066756e6465642e0000000000006000830152602082019050919050565b60006119f5600083611fad565b9150600082019050919050565b6000611a0f601583611fc9565b91507f4661696c656420746f2073656e642066756e64732e00000000000000000000006000830152602082019050919050565b6000611a4f602483611fc9565b91507f43616e6e6f74207769746864726177206265666f72652074686520646561646c60008301527f696e652e000000000000000000000000000000000000000000000000000000006020830152604082019050919050565b600061012083016000830151611ac1600086018261146d565b5060208301518482036020860152611ad98282611678565b91505060408301518482036040860152611af38282611678565b9150506060830151611b086060860182611b89565b506080830151611b1b6080860182611b89565b5060a0830151611b2e60a0860182611b89565b5060c083015184820360c0860152611b46828261148b565b91505060e083015184820360e0860152611b6082826115bc565b915050610100830151848203610100860152611b7c82826115bc565b9150508091505092915050565b611b9281612096565b82525050565b611ba181612096565b82525050565b6000611bb2826119e8565b9150819050919050565b600060c082019050611bd1600083018961147c565b8181036020830152611be381886116b1565b90508181036040830152611bf781876116b1565b9050611c066060830186611b98565b611c136080830185611b98565b611c2060a0830184611b98565b979650505050505050565b60006060820190508181036000830152611c4581866114e9565b90508181036020830152611c59818561161a565b90508181036040830152611c6d818461161a565b9050949350505050565b60006020820190508181036000830152611c918184611547565b905092915050565b60006020820190508181036000830152611cb2816116ea565b9050919050565b60006020820190508181036000830152611cd281611750565b9050919050565b60006020820190508181036000830152611cf2816117b6565b9050919050565b60006020820190508181036000830152611d128161181c565b9050919050565b60006020820190508181036000830152611d328161185c565b9050919050565b60006020820190508181036000830152611d528161189c565b9050919050565b60006020820190508181036000830152611d7281611902565b9050919050565b60006020820190508181036000830152611d9281611942565b9050919050565b60006020820190508181036000830152611db2816119a8565b9050919050565b60006020820190508181036000830152611dd281611a02565b9050919050565b60006020820190508181036000830152611df281611a42565b9050919050565b6000602082019050611e0e6000830184611b98565b92915050565b6000604082019050611e296000830185611b98565b611e366020830184611b98565b9392505050565b6000606082019050611e526000830186611b98565b611e5f6020830185611b98565b611e6c6040830184611b98565b949350505050565b6000604051905081810181811067ffffffffffffffff82111715611e9b57611e9a6121bb565b5b8060405250919050565b600067ffffffffffffffff821115611ec057611ebf6121bb565b5b601f19601f8301169050602081019050919050565b6000819050602082019050919050565b6000819050602082019050919050565b6000819050602082019050919050565b600081519050919050565b600081519050919050565b600081519050919050565b600081519050919050565b6000602082019050919050565b6000602082019050919050565b6000602082019050919050565b600082825260208201905092915050565b600082825260208201905092915050565b600082825260208201905092915050565b600082825260208201905092915050565b600082825260208201905092915050565b600081905092915050565b600082825260208201905092915050565b600082825260208201905092915050565b6000611fe582612096565b9150611ff083612096565b9250827fffffffffffffffffffffffffffffffffffffffffffffffffffffffffffffffff038211156120255761202461215d565b5b828201905092915050565b600061203b82612096565b915061204683612096565b9250828210156120595761205861215d565b5b828203905092915050565b600061206f82612076565b9050919050565b600073ffffffffffffffffffffffffffffffffffffffff82169050919050565b6000819050919050565b82818337600083830152505050565b60005b838110156120cd5780820151818401526020810190506120b2565b838111156120dc576000848401525b50505050565b600060028204905060018216806120fa57607f821691505b6020821081141561210e5761210d61218c565b5b50919050565b600061211f82612096565b91507fffffffffffffffffffffffffffffffffffffffffffffffffffffffffffffffff8214156121525761215161215d565b5b600182019050919050565b7f4e487b7100000000000000000000000000000000000000000000000000000000600052601160045260246000fd5b7f4e487b7100000000000000000000000000000000000000000000000000000000600052602260045260246000fd5b7f4e487b7100000000000000000000000000000000000000000000000000000000600052604160045260246000fd5b6000601f19601f8301169050919050565b61220481612096565b811461220f57600080fd5b5056fea2646970667358221220eea57325c944e04f97b50f7253266d3800fad20ec222fcac19e725046062372464736f6c63430008000033",
  "linkReferences": {},
  "deployedLinkReferences": {}
}