{
  "_format": "hh-sol-artifact-1",
  "contractName": "TransferSepoliaETH",
  "sourceName": "contracts/TransferSepoliaEth.sol",
  "abi": [
    {
      "anonymous": false,
      "inputs": [
        {
          "indexed": true,
          "internalType": "address",
          "name": "from",
          "type": "address"
        },
        {
          "indexed": true,
          "internalType": "address",
          "name": "to",
          "type": "address"
        },
        {
          "indexed": false,
          "internalType": "uint256",
          "name": "amount",
          "type": "uint256"
        }
      ],
      "name": "Transfer",
      "type": "event"
    },
    {
      "inputs": [
        {
          "internalType": "address payable",
          "name": "_to",
          "type": "address"
        },
        {
          "internalType": "uint256",
          "name": "_amount",
          "type": "uint256"
        }
      ],
      "name": "transferEth",
      "outputs": [],
      "stateMutability": "payable",
      "type": "function"
    }
  ],
  "bytecode": "0x608060405234801561001057600080fd5b506102d3806100206000396000f3fe60806040526004361061001e5760003560e01c8063e9bb84c214610023575b600080fd5b61003d6004803603810190610038919061015c565b61003f565b005b80341015610082576040517f08c379a0000000000000000000000000000000000000000000000000000000008152600401610079906101e7565b60405180910390fd5b8173ffffffffffffffffffffffffffffffffffffffff166108fc829081150290604051600060405180830381858888f193505050501580156100c8573d6000803e3d6000fd5b508173ffffffffffffffffffffffffffffffffffffffff163373ffffffffffffffffffffffffffffffffffffffff167fddf252ad1be2c89b69c2b068fc378daa952ba7f163c4a11628f55a4df523b3ef836040516101269190610207565b60405180910390a35050565b6000813590506101418161026f565b92915050565b60008135905061015681610286565b92915050565b6000806040838503121561016f57600080fd5b600061017d85828601610132565b925050602061018e85828601610147565b9150509250929050565b60006101a5601583610222565b91507f496e73756666696369656e74204554482073656e7400000000000000000000006000830152602082019050919050565b6101e181610265565b82525050565b6000602082019050818103600083015261020081610198565b9050919050565b600060208201905061021c60008301846101d8565b92915050565b600082825260208201905092915050565b600061023e82610245565b9050919050565b600073ffffffffffffffffffffffffffffffffffffffff82169050919050565b6000819050919050565b61027881610233565b811461028357600080fd5b50565b61028f81610265565b811461029a57600080fd5b5056fea264697066735822122009aec642d36b03db86886b8774d8623fc29b7035c8bbf8ff51ae32bd3b2f26dd64736f6c63430008000033",
  "linkReferences": {},
  "deployedLinkReferences": {}
}